{
  "contractName": "TokenBase",
  "abi": [
    {
      "constant": true,
      "inputs": [],
      "name": "INITIAL_AMOUNT",
      "outputs": [
        {
          "name": "",
          "type": "uint256"
        }
      ],
      "payable": false,
      "stateMutability": "view",
      "type": "function"
    },
    {
      "constant": true,
      "inputs": [],
      "name": "totalSupply",
      "outputs": [
        {
          "name": "",
          "type": "uint256"
        }
      ],
      "payable": false,
      "stateMutability": "view",
      "type": "function"
    },
    {
      "constant": true,
      "inputs": [
        {
          "name": "",
          "type": "address"
        }
      ],
      "name": "balances",
      "outputs": [
        {
          "name": "",
          "type": "uint256"
        }
      ],
      "payable": false,
      "stateMutability": "view",
      "type": "function"
    },
    {
      "constant": true,
      "inputs": [],
      "name": "owner",
      "outputs": [
        {
          "name": "",
          "type": "address"
        }
      ],
      "payable": false,
      "stateMutability": "view",
      "type": "function"
    },
    {
      "constant": true,
      "inputs": [],
      "name": "NAME",
      "outputs": [
        {
          "name": "",
          "type": "string"
        }
      ],
      "payable": false,
      "stateMutability": "view",
      "type": "function"
    },
    {
      "constant": true,
      "inputs": [],
      "name": "SYMBOL",
      "outputs": [
        {
          "name": "",
          "type": "string"
        }
      ],
      "payable": false,
      "stateMutability": "view",
      "type": "function"
    },
    {
      "inputs": [],
      "payable": false,
      "stateMutability": "nonpayable",
      "type": "constructor"
    },
    {
      "anonymous": false,
      "inputs": [
        {
          "indexed": true,
          "name": "_from",
          "type": "address"
        },
        {
          "indexed": true,
          "name": "_to",
          "type": "address"
        },
        {
          "indexed": false,
          "name": "_value",
          "type": "uint256"
        }
      ],
      "name": "Transfer",
      "type": "event"
    },
    {
      "anonymous": false,
      "inputs": [
        {
          "indexed": true,
          "name": "_owner",
          "type": "address"
        },
        {
          "indexed": true,
          "name": "_spender",
          "type": "address"
        },
        {
          "indexed": false,
          "name": "_value",
          "type": "uint256"
        }
      ],
      "name": "Approval",
      "type": "event"
    },
    {
      "constant": true,
      "inputs": [
        {
          "name": "_owner",
          "type": "address"
        }
      ],
      "name": "balanceOf",
      "outputs": [
        {
          "name": "balance",
          "type": "uint256"
        }
      ],
      "payable": false,
      "stateMutability": "view",
      "type": "function"
    },
    {
      "constant": false,
      "inputs": [
        {
          "name": "_to",
          "type": "address"
        },
        {
          "name": "_value",
          "type": "uint256"
        }
      ],
      "name": "giveTokenFromTo",
      "outputs": [],
      "payable": false,
      "stateMutability": "nonpayable",
      "type": "function"
    },
    {
      "constant": false,
      "inputs": [
        {
          "name": "_to",
          "type": "address"
        },
        {
          "name": "_value",
          "type": "uint256"
        }
      ],
      "name": "transfer",
      "outputs": [
        {
          "name": "success",
          "type": "bool"
        }
      ],
      "payable": false,
      "stateMutability": "nonpayable",
      "type": "function"
    },
    {
      "constant": false,
      "inputs": [
        {
          "name": "_from",
          "type": "address"
        },
        {
          "name": "_to",
          "type": "address"
        },
        {
          "name": "_value",
          "type": "uint256"
        }
      ],
      "name": "transferFrom",
      "outputs": [
        {
          "name": "success",
          "type": "bool"
        }
      ],
      "payable": false,
      "stateMutability": "nonpayable",
      "type": "function"
    },
    {
      "constant": false,
      "inputs": [
        {
          "name": "_spender",
          "type": "address"
        },
        {
          "name": "_value",
          "type": "uint256"
        }
      ],
      "name": "approve",
      "outputs": [
        {
          "name": "success",
          "type": "bool"
        }
      ],
      "payable": false,
      "stateMutability": "nonpayable",
      "type": "function"
    },
    {
      "constant": true,
      "inputs": [
        {
          "name": "_owner",
          "type": "address"
        },
        {
          "name": "_spender",
          "type": "address"
        }
      ],
      "name": "allowance",
      "outputs": [
        {
          "name": "remaining",
          "type": "uint256"
        }
      ],
      "payable": false,
      "stateMutability": "view",
      "type": "function"
    },
    {
      "constant": false,
      "inputs": [
        {
          "name": "_value",
          "type": "uint256"
        }
      ],
      "name": "addToken",
      "outputs": [],
      "payable": false,
      "stateMutability": "nonpayable",
      "type": "function"
    }
  ],
  "bytecode": "0x608060405234801561001057600080fd5b50620186a0600081905550620186a0600260003373ffffffffffffffffffffffffffffffffffffffff1673ffffffffffffffffffffffffffffffffffffffff1681526020019081526020016000208190555033600160006101000a81548173ffffffffffffffffffffffffffffffffffffffff021916908373ffffffffffffffffffffffffffffffffffffffff160217905550611029806100b26000396000f3006080604052600436106100c5576000357c0100000000000000000000000000000000000000000000000000000000900463ffffffff168063095ea7b3146100ca57806313982e371461012f578063179d375c1461015a57806318160ddd1461018757806323b872dd146101b257806327e235e3146102375780636add9cf51461028e57806370a08231146102db5780638da5cb5b14610332578063a3f4df7e14610389578063a9059cbb14610419578063dd62ed3e1461047e578063f76f8d78146104f5575b600080fd5b3480156100d657600080fd5b50610115600480360381019080803573ffffffffffffffffffffffffffffffffffffffff16906020019092919080359060200190929190505050610585565b604051808215151515815260200191505060405180910390f35b34801561013b57600080fd5b50610144610677565b6040518082815260200191505060405180910390f35b34801561016657600080fd5b506101856004803603810190808035906020019092919050505061067e565b005b34801561019357600080fd5b5061019c6107c4565b6040518082815260200191505060405180910390f35b3480156101be57600080fd5b5061021d600480360381019080803573ffffffffffffffffffffffffffffffffffffffff169060200190929190803573ffffffffffffffffffffffffffffffffffffffff169060200190929190803590602001909291905050506107ca565b604051808215151515815260200191505060405180910390f35b34801561024357600080fd5b50610278600480360381019080803573ffffffffffffffffffffffffffffffffffffffff169060200190929190505050610b36565b6040518082815260200191505060405180910390f35b34801561029a57600080fd5b506102d9600480360381019080803573ffffffffffffffffffffffffffffffffffffffff16906020019092919080359060200190929190505050610b4e565b005b3480156102e757600080fd5b5061031c600480360381019080803573ffffffffffffffffffffffffffffffffffffffff169060200190929190505050610cd3565b6040518082815260200191505060405180910390f35b34801561033e57600080fd5b50610347610d1c565b604051808273ffffffffffffffffffffffffffffffffffffffff1673ffffffffffffffffffffffffffffffffffffffff16815260200191505060405180910390f35b34801561039557600080fd5b5061039e610d42565b6040518080602001828103825283818151815260200191508051906020019080838360005b838110156103de5780820151818401526020810190506103c3565b50505050905090810190601f16801561040b5780820380516001836020036101000a031916815260200191505b509250505060405180910390f35b34801561042557600080fd5b50610464600480360381019080803573ffffffffffffffffffffffffffffffffffffffff16906020019092919080359060200190929190505050610d7b565b604051808215151515815260200191505060405180910390f35b34801561048a57600080fd5b506104df600480360381019080803573ffffffffffffffffffffffffffffffffffffffff169060200190929190803573ffffffffffffffffffffffffffffffffffffffff169060200190929190505050610f3d565b6040518082815260200191505060405180910390f35b34801561050157600080fd5b5061050a610fc4565b6040518080602001828103825283818151815260200191508051906020019080838360005b8381101561054a57808201518184015260208101905061052f565b50505050905090810190601f1680156105775780820380516001836020036101000a031916815260200191505b509250505060405180910390f35b600081600360003373ffffffffffffffffffffffffffffffffffffffff1673ffffffffffffffffffffffffffffffffffffffff16815260200190815260200160002060008573ffffffffffffffffffffffffffffffffffffffff1673ffffffffffffffffffffffffffffffffffffffff168152602001908152602001600020819055508273ffffffffffffffffffffffffffffffffffffffff163373ffffffffffffffffffffffffffffffffffffffff167f8c5be1e5ebec7d5bd14f71427d1e84f3dd0314c0f7b2291e5b200ac8c7c3b925846040518082815260200191505060405180910390a36001905092915050565b620186a081565b3373ffffffffffffffffffffffffffffffffffffffff16600160009054906101000a900473ffffffffffffffffffffffffffffffffffffffff1673ffffffffffffffffffffffffffffffffffffffff16141515610743576040517f08c379a000000000000000000000000000000000000000000000000000000000815260040180806020018281038252600a8152602001807f4e6f20416363657373210000000000000000000000000000000000000000000081525060200191505060405180910390fd5b8060008082825401925050819055508060026000600160009054906101000a900473ffffffffffffffffffffffffffffffffffffffff1673ffffffffffffffffffffffffffffffffffffffff1673ffffffffffffffffffffffffffffffffffffffff1681526020019081526020016000206000828254019250508190555050565b60005481565b600080600360008673ffffffffffffffffffffffffffffffffffffffff1673ffffffffffffffffffffffffffffffffffffffff16815260200190815260200160002060008573ffffffffffffffffffffffffffffffffffffffff1673ffffffffffffffffffffffffffffffffffffffff16815260200190815260200160002054905082600260008773ffffffffffffffffffffffffffffffffffffffff1673ffffffffffffffffffffffffffffffffffffffff1681526020019081526020016000205410151515610903576040517f08c379a000000000000000000000000000000000000000000000000000000000815260040180806020018281038252601c8152602001807f53656e64657220686173206e6f7420656e6f7567687420546f6b656e0000000081525060200191505060405180910390fd5b8281101515156109a1576040517f08c379a00000000000000000000000000000000000000000000000000000000081526004018080602001828103825260248152602001807f5468657265206973206e6f20616c6c6f77616e636520666f722074686973207681526020017f616c75650000000000000000000000000000000000000000000000000000000081525060400191505060405180910390fd5b82600260008673ffffffffffffffffffffffffffffffffffffffff1673ffffffffffffffffffffffffffffffffffffffff1681526020019081526020016000206000828254019250508190555082600260008773ffffffffffffffffffffffffffffffffffffffff1673ffffffffffffffffffffffffffffffffffffffff1681526020019081526020016000206000828254039250508190555082600360008773ffffffffffffffffffffffffffffffffffffffff1673ffffffffffffffffffffffffffffffffffffffff16815260200190815260200160002060008673ffffffffffffffffffffffffffffffffffffffff1673ffffffffffffffffffffffffffffffffffffffff168152602001908152602001600020600082825403925050819055508373ffffffffffffffffffffffffffffffffffffffff168573ffffffffffffffffffffffffffffffffffffffff167fddf252ad1be2c89b69c2b068fc378daa952ba7f163c4a11628f55a4df523b3ef856040518082815260200191505060405180910390a360019150509392505050565b60026020528060005260406000206000915090505481565b600160009054906101000a900473ffffffffffffffffffffffffffffffffffffffff1673ffffffffffffffffffffffffffffffffffffffff163373ffffffffffffffffffffffffffffffffffffffff16141515610c13576040517f08c379a000000000000000000000000000000000000000000000000000000000815260040180806020018281038252600e8152602001807f4e6f207065726d697373696f6e2100000000000000000000000000000000000081525060200191505060405180910390fd5b8060026000600160009054906101000a900473ffffffffffffffffffffffffffffffffffffffff1673ffffffffffffffffffffffffffffffffffffffff1673ffffffffffffffffffffffffffffffffffffffff1681526020019081526020016000206000828254039250508190555080600260008473ffffffffffffffffffffffffffffffffffffffff1673ffffffffffffffffffffffffffffffffffffffff168152602001908152602001600020600082825401925050819055505050565b6000600260008373ffffffffffffffffffffffffffffffffffffffff1673ffffffffffffffffffffffffffffffffffffffff168152602001908152602001600020549050919050565b600160009054906101000a900473ffffffffffffffffffffffffffffffffffffffff1681565b6040805190810160405280600b81526020017f426174746572436861696e00000000000000000000000000000000000000000081525081565b600081600260003373ffffffffffffffffffffffffffffffffffffffff1673ffffffffffffffffffffffffffffffffffffffff1681526020019081526020016000205410151515610e34576040517f08c379a000000000000000000000000000000000000000000000000000000000815260040180806020018281038252601c8152602001807f53656e64657220686173206e6f7420656e6f7567687420546f6b656e0000000081525060200191505060405180910390fd5b81600260003373ffffffffffffffffffffffffffffffffffffffff1673ffffffffffffffffffffffffffffffffffffffff1681526020019081526020016000206000828254039250508190555081600260008573ffffffffffffffffffffffffffffffffffffffff1673ffffffffffffffffffffffffffffffffffffffff168152602001908152602001600020600082825401925050819055508273ffffffffffffffffffffffffffffffffffffffff163373ffffffffffffffffffffffffffffffffffffffff167fddf252ad1be2c89b69c2b068fc378daa952ba7f163c4a11628f55a4df523b3ef846040518082815260200191505060405180910390a36001905092915050565b6000600360008473ffffffffffffffffffffffffffffffffffffffff1673ffffffffffffffffffffffffffffffffffffffff16815260200190815260200160002060008373ffffffffffffffffffffffffffffffffffffffff1673ffffffffffffffffffffffffffffffffffffffff16815260200190815260200160002054905092915050565b6040805190810160405280600381526020017f4241430000000000000000000000000000000000000000000000000000000000815250815600a165627a7a72305820fdf05535b1e3d58f763ff9e807596ae9780e83e501d03faf16bf86609aedb4fd0029",
  "source": "pragma solidity ^0.4.24;\n\ncontract Home {\n    uint interval = 10;\n    address owner;\n    address[] prosumerAddress;\n    Storage[] public storages;\n    mapping(address => Prosumer) prosumer;\n    mapping(uint => mapping(uint => Storage)) public storageGrid;\n    TokenBase tokenBase;\n    uint tokenForOneCapacity = 1;\n    uint pauschale = 10;\n\n    bool on = false;\n\n    constructor() public {\n        owner = msg.sender;\n        tokenBase = new TokenBase();\n    }\n\n    function setOn() public{\n      on = true;\n    }\n\n    function getOn() public view returns(bool){\n      return on;\n    }\n\n    function getCapaOfMyStorage(uint _stNbr) public view returns(uint){\n        return prosumer[msg.sender].getStorages()[_stNbr].getUnusedCapaInNextInterval();\n    }\n\n    function getNbrOfClaims() public view returns(uint){\n         return prosumer[msg.sender].getStorages()[0].getNbrOfClaims();\n    }\n\n    function getPauschale() public view returns(uint){\n        return pauschale;\n    }\n\n    function getUnusedCapaInNextInterval() public view returns(uint value){\n        for(uint i = 0; i < storages.length; i++){\n            value += storages[i].getUnusedCapaInNextInterval();\n        }\n    }\n\n    function setPauschale(uint _value) public {\n        pauschale = _value;\n    }\n\n    function getTokenForOneCapacity() public view returns (uint){\n        return tokenForOneCapacity;\n    }\n\n    function balanceOf(address _owner) public view returns (uint256 balance) {\n        return tokenBase.balanceOf(_owner);\n    }\n\n    function claim() public {\n        require(prosumer[msg.sender].getStorages().length > 0);\n        for(uint i = 0; i <  prosumer[msg.sender].getStorages().length; i++){\n            tokenBase.giveTokenFromTo(msg.sender, prosumer[msg.sender].getStorages()[i].claim());\n            prosumer[msg.sender].getStorages()[i].setLastClaimedToNow();\n        }\n    }\n\n    //setter\n    function useCapaInNextIntervalFromXY(uint _x, uint _y, uint _value) public returns(uint capaLeft) {\n        return storageGrid[_x][_y].useCapaInNextInterval(_value);\n    }\n\n    function getMaxCapa() public view returns(uint maxCapa) {\n        for(uint i = 0; i < storages.length; i++){\n            maxCapa += storages[i].getCapa();\n        }\n    }\n\n    function changeCapa(uint _stNbr, uint _capa) public {\n        prosumer[msg.sender].getStorages()[_stNbr].changeCapa(_capa);\n    }\n\n    function getMyStorages() public view returns(Storage[]) {\n        return prosumer[msg.sender].getStorages();\n    }\n\n    function getInterval() public view returns(uint){\n        return interval;\n    }\n\n    function setMyStorageOffline(uint _stNbr) public {\n        prosumer[msg.sender].getStorages()[_stNbr].setOffline();\n    }\n\n    function setMyStorageOnline(uint _stNbr) public {\n        prosumer[msg.sender].getStorages()[_stNbr].setOnline();\n    }\n\n    function useCapaInNextIntervalForXY(uint _x, uint _y, uint _value) public returns(uint valueLeft){\n        uint index = 0;\n        uint shortest = uint(int(-1));\n        valueLeft = _value;\n        for(uint i = 0; i < storages.length; i++){\n            if(storages[i].getUnusedCapaInNextInterval() > 0){\n                uint x = 0;\n                uint y = 0;\n                uint len = 0;\n                (x, y) = storages[i].getXY();\n                //Abs\n                if(_x > x)\n                    len = _x - x;\n                else\n                    len = x - _x;\n                if(_y > y)\n                    len += _y - y;\n                else\n                    len += y - _y;\n                if(len < shortest){\n                    shortest = len;\n                    index = i;\n                }\n            }\n        }\n        uint space = storages[index].getUnusedCapaInNextInterval();\n        if(space >= valueLeft){\n            storages[index].useCapaInNextInterval(valueLeft);\n            valueLeft = 0;\n        }\n        else {\n            storages[index].useCapaInNextInterval(space);\n            valueLeft -= space;\n            useCapaInNextIntervalForXY(_x, _y, valueLeft);\n        }\n\n    }\n\n    //New\n\n    function newProsumer() public {\n        prosumer[msg.sender] = new Prosumer(msg.sender);\n        prosumerAddress.push(msg.sender);\n    }\n\n    function addNewStorage(uint _x, uint _y, uint _capacity) public {\n        Storage newStorage = new Storage(msg.sender, _x, _y, _capacity);\n        storages.push(newStorage);\n        storageGrid[_x][_y] = newStorage;\n        prosumer[msg.sender].addNewStorage(address(newStorage));\n    }\n\n    // Intervall\n\n    function getActualInterval() public view returns(uint) {\n        return now - (now % interval);\n    }\n\n    function getNextInterval() public view returns(uint) {\n        return now - (now % interval) + interval;\n    }\n\n    //Getter\n    function getStorageFromXY(uint _x, uint _y) public view returns(Storage) {\n        return storageGrid[_x][_y];\n    }\n\n    function getUnusedCapaInNextInterval(uint _x, uint _y) public view returns(uint) {\n        return storageGrid[_x][_y].getUnusedCapaInNextInterval();\n    }\n\n    function getMyUnusedCapaInNextInterval(uint _x) public view returns(uint){\n      prosumer[msg.sender].getStorages()[_x].getUnusedCapaInNextInterval();\n    }\n\n\n\n}\n\ncontract Prosumer {\n    Home home;\n    address owner;\n    Storage[] storages;\n\n\n    constructor(address _owner) public{\n        home = Home(msg.sender);\n        owner = _owner;\n    }\n\n    function addNewStorage(address _storage) public {\n        require(msg.sender == address(home), \"No permission\");\n        storages.push(Storage(_storage));\n    }\n\n    function getStorages() public view returns (Storage[]){\n        return storages;\n    }\n\n}\n\ncontract Storage {\n    Home home;\n    uint x;\n    uint y;\n    Prosumer owner;\n    uint maxCapa;\n    uint capa;\n    mapping(uint => uint) usedCapaInInterval;\n    uint lastClaimed;\n\n    struct Coordinates{\n        uint x;\n        uint y;\n    }\n\n    Coordinates coordinates;\n\n\n    constructor(address _owner, uint _x, uint _y, uint _capa) public{\n        owner = Prosumer(_owner);\n        capa = _capa;\n        home = Home(msg.sender);\n        coordinates.x = _x;\n        coordinates.y = _y;\n        maxCapa = _capa;\n        lastClaimed = now;\n    }\n\n    function setOffline() public {\n        capa = 0;\n    }\n\n    function setOnline() public {\n        capa = maxCapa;\n    }\n\n    function changeCapa(uint _capa) public{\n        capa = _capa;\n        maxCapa = _capa;\n    }\n\n    function changeXY(uint _x, uint _y) public{\n        coordinates.x = _x;\n        coordinates.y = _y;\n    }\n\n    function getXY() public view returns(uint, uint) {\n        return (coordinates.x, coordinates.y);\n    }\n\n    function getCapa() public view returns(uint){\n        return capa;\n    }\n\n    function useCapaInNextInterval(uint _value) public returns(uint _free){\n        require(msg.sender == address(home), \"No permission\");\n        require(usedCapaInInterval[home.getNextInterval()] + _value <= capa, \"No capacity left\");\n        usedCapaInInterval[home.getNextInterval()] += _value;\n        return usedCapaInInterval[home.getNextInterval()];\n    }\n\n    function getUnusedCapaInNextInterval() public view returns(uint _free) {\n        return capa - usedCapaInInterval[home.getNextInterval()];\n    }\n\n    function setLastClaimedToNow() public{\n        lastClaimed = home.getActualInterval();\n    }\n\n    function getNbrOfClaims() public view returns(uint value) {\n        value = (now - lastClaimed) / home.getInterval();\n    }\n\n    function claim() public view returns(uint value){\n        uint interval = home.getInterval();\n        uint notClaimedIntervals = (now - lastClaimed) / interval;\n        for(uint i = 0; i < notClaimedIntervals; i++) {\n            value += usedCapaInInterval[lastClaimed + notClaimedIntervals * interval] * home.getTokenForOneCapacity();\n            value += home.getPauschale();\n        }\n\n    }\n}\n\ncontract ERC20Interface {\n\n    uint256 public totalSupply;\n\n    function balanceOf(address _owner) public view returns (uint256 balance);\n\n    function transfer(address _to, uint256 _value) public returns (bool success);\n\n    function transferFrom(address _from, address _to, uint256 _value) public returns (bool success);\n\n    function approve(address _spender, uint256 _value) public returns (bool success);\n\n    function allowance(address _owner, address _spender) public view returns (uint256 remaining);\n\n    event Transfer(address indexed _from, address indexed _to, uint256 _value);\n\n    event Approval(address indexed _owner, address indexed _spender, uint256 _value);\n\n}\n\n\ncontract TokenBase is ERC20Interface {\n\n    string public constant NAME = \"BatterChain\";\n\n    string public constant SYMBOL = \"BAC\";\n\n    uint256 public constant INITIAL_AMOUNT = 100000;\n\n    address public owner;\n\n    mapping (address => uint256) public balances;\n\n    mapping (address => mapping (address => uint256)) allowed;\n\n    constructor() public {\n        totalSupply = INITIAL_AMOUNT;\n        balances[msg.sender] = INITIAL_AMOUNT;\n        owner = msg.sender;\n    }\n\n    function balanceOf(address _owner) public view returns (uint256 balance) {\n        return balances[_owner];\n    }\n\n    function giveTokenFromTo(address _to, uint _value) public{\n        require(msg.sender == owner, \"No permission!\");\n        balances[owner] -= _value;\n        balances[_to] += _value;\n    }\n\n    function transfer(address _to, uint256 _value) public returns (bool success) {\n\n        require(balances[msg.sender] >= _value, \"Sender has not enought Token\");\n\n        balances[msg.sender] -= _value;\n        balances[_to] += _value;\n\n        emit Transfer(msg.sender, _to, _value);\n        return true;\n    }\n\n    function transferFrom(address _from, address _to, uint256 _value) public returns (bool success) {\n        uint256 allowance = allowed[_from][_to];\n        require(balances[_from] >= _value, \"Sender has not enought Token\");\n        require(allowance >= _value, \"There is no allowance for this value\");\n\n        balances[_to] += _value;\n        balances[_from] -= _value;\n        allowed[_from][_to] -= _value;\n\n        emit Transfer(_from, _to, _value);\n        return true;\n    }\n\n    function approve(address _spender, uint256 _value) public returns (bool success) {\n        allowed[msg.sender][_spender] = _value;\n\n        emit Approval(msg.sender, _spender, _value);\n        return true;\n    }\n\n    function allowance(address _owner, address _spender) public view returns (uint256 remaining) {\n        return allowed[_owner][_spender];\n    }\n\n    function addToken(uint _value) public {\n        require(owner == msg.sender, \"No Access!\");\n        totalSupply +=  _value;\n        balances[owner] += _value;\n    }\n}\n",
  "sourcePath": "/Users/matthiasbabel/git/ht/peer/contracts/Contract.sol",
  "compiler": {
    "name": "solc",
    "version": "0.4.24+commit.e67f0147.Emscripten.clang"
  },
  "schemaVersion": "2.0.1",
  "updatedAt": "2018-11-10T13:08:13.281Z"
}